:103E0000112484B714BE81FFF6D085E08093810031
:103E100082E08093C00086E08093C20088E18093B6
:103E2000C10087E690E09093C5008093C4008EE0C7
:103E3000CCD00A9A24E088E19EEF51E044E09093D0
:103E400085008093840056BBB09BFECF32B13427EF
:103E500032B9A895215099F788249924CC24C39489
:103E6000F5E0DF2EE1E1EE2E73E0F72EA0D08134F5
:103E700069F49DD08983AFD08981823811F081386F
:103E800011F484E001C083E08BD087C0823411F448
:103E900084E103C0853419F485E0A5D07EC0853562
:103EA00061F485D0082F10E082D090E0982E88240D
:103EB000802A912A880C991C6FC0863521F484E0F1
:103EC00092D080E0E1CF843609F040C070D06FD04E
:103ED000B82E6DD080E0881688E3980618F4F401B7
:103EE000F7BEE89500E011E062D0F80181938F0100
:103EF000BE16D1F7F0E08F16F8E39F0618F0F40134
:103F0000F7BEE89568D007B600FCFDCFF401A0E04D
:103F1000B1E02C9130E011968C91119790E0982FA0
:103F20008827822B932B12960C01C7BEE89511248B
:103F3000329681E0A038B80761F7F401D7BEE89562
:103F400007B600FCFDCFE7BEE89527C08437B9F47B
:103F50002ED02DD0A82E2BD03ED0BA2CF40101C0EB
:103F6000F8018F010F5F1F4F84911AD0BA94C1F7E7
:103F70000894811C911CAA948A0C911C0EC0853750
:103F800039F429D08EE10CD084E90AD08AE07CCFC4
:103F9000813511F488E019D01ED080E101D066CFC0
:103FA0009091C00095FFFCCF8093C6000895029ABF
:103FB0008091C00087FFFCCF8091C00084FD01C0CC
:103FC000A8958091C600029A0895E0E6F0E098E195
:103FD000908380830895EBDF803219F088E0F5DF6D
:103FE000FFCF84E1DDCFCF93C82FE1DFC150E9F7E8
:103FF000F2DFCF91089580E0E8DFEE27FF270994F4
:023FFE000404B9
:0400000300003E00BB
:00000001FF
