:101E000011248FE592E09EBF8DBF84B714BE81FF81
:101E1000E8D085E08EBD82E08BB988E18AB986E89A
:101E200080BD89E189B98EE0C7D0A29A24E084E21E
:101E30009DEF44E09DBD8CBD48BF08B602FEFDCFBE
:101E400035B3342735BBA8952150A1F788249924B0
:101E5000CC24C394F5E0DF2EE1E1EE2E73E0F72E03
:101E60009CD0813469F499D08983ABD08981823840
:101E700011F0813811F484E001C083E08AD086C07B
:101E8000823411F484E103C0853419F485E0A1D0D3
:101E90007DC0853561F481D0082F10E07ED090E0C0
:101EA000982E8824802A912A880C991C6EC0863529
:101EB00021F484E08ED080E0E1CF843609F03FC089
:101EC0006CD06BD0B82E69D080E0881688E1980677
:101ED00018F4F401F7BEE89500E610E05ED0F801D2
:101EE00081938F01BA94D1F7F0E08F16F8E19F0645
:101EF00018F0F401F7BEE89564D007B600FCFDCFFA
:101F0000F401A0E6B0E02C9130E011968C9111978D
:101F100090E0982F8827822B932B12960C01C7BE36
:101F2000E89511243296A03AB10569F7F401D7BEBD
:101F3000E89507B600FCFDCFE7BEE89527C08437DB
:101F4000B9F42BD02AD0A82E28D03BD0BA2CF4013B
:101F500001C0F8018F010F5F1F4F84911AD0BA940E
:101F6000C1F70894811C911CAA948A0C911C0EC084
:101F7000853739F426D08EE10CD083E90AD088E089
:101F80007DCF813511F488E017D01BD080E101D0DE
:101F900067CF5D9BFECF8CB9089585B394E0892708
:101FA00085BB5F9BFECF5C9901C0A8958CB195B3B2
:101FB00024E0922795BB089591B5986191BD81BDAC
:101FC0000895EBDF803219F088E0F6DFFFCF84E17F
:101FD000E0CFCF93C82FE1DFC150E9F7F2DFCF9117
:0C1FE000089580E0E9DFEE27FF27099458
:021FFE000404D9
:0400000300001E00DB
:00000001FF
